:100000000EC020C01FC01EC01DC01CC01BC01AC017
:1000100019C018C017C016C015C014C013C01124D1
:100020001FBECFE5D1E0DEBFCDBF10E0A0E6B0E05F
:10003000E8EAFAE002C005900D92AE38B107D9F7B0
:10004000B4D030C5DDCF2FB7F8949AE0E8B3EE7F97
:10005000E8BB00000000000000000000EDECF0E054
:100060003197F1F70000E8B380FDE16080FFEE7F9B
:10007000E8BB089487959A9589F72FBF0895CF9389
:10008000DF93EC018991882341F0DDDF8FE697E172
:100090000197F1F700C00000F5CFDF91CF910895EF
:1000A000CF93C82F8CE735D080E045D08C2F43D03C
:1000B000CF9139C0CF93C82F8CE72BD080E43BD0B1
:1000C0008C2F39D0CF912FC0CF93DF93EC01899142
:1000D000882311F0EFDFFBCFDF91CF9108958F934D
:1000E00087E099270197F1F78F910895BB98BC9805
:1000F000C398C4980895BB9AF2DF1DD00895BC9AA6
:10010000EEDFBB98ECDFBC98EADFBB9AE8DF13D0E8
:100110000895082EBB9AE3DF802D0DD0882311F0BF
:1001200002D0F8CF0895BC9ABB9AD9DFBC98D7DF2C
:10013000BB98D5DF08950894881F01C0880F59F037
:10014000BC9A18F40000BB9802C0BB9A00C0C7DF7D
:10015000BC98C5DFF3CFBC9ABB98C1DFBC98B49BF9
:10016000FECF8827B39981E0BADF992708958827C1
:1001700001C081E071E0BC9ABB98B1DFBC98AFDFF1
:10018000B49BFECF8894B3990894771FA0F7BC9ACC
:10019000813011F0BB9801C0BB9AA1DFBC98B49B21
:1001A000FECF9DDF872F99270895CF93DF93CDB79B
:1001B000DEB768970FB6F894DEBF0FBECDBF20E064
:1001C00030E080E80FB6F89486BD26BD0FBEB89A21
:1001D0008DDF88E365DF89E363DF84E161DF8FE53D
:1001E0005FDF8CE65DDF2FEF82E597E021508040F6
:1001F0009040E1F700C0000088E352DF8CE050DF60
:1002000081E04EDFD12C60E6262E60E0362E8E0196
:100210000F5F1F4F78E0B72E80E87BDF81E08BDF38
:1002200081E86DDFA6DFF82EA2DFE82E7CDF80E814
:1002300070DF82E080DF81E862DF9BDFC82E97DF1E
:10024000A82E71DF8E2D90E09E8B8D8B8F2D90E0F0
:10025000988F8F8B1F92EF921F92FF923F922F9257
:100260001F9294E19F931F930F932AD1C80107DF38
:10027000EC2CF12C8A2C912C1F92AF921F92CF92D2
:100280003F922F921F9224E12F931F930F9318D127
:10029000C801F5DE89E690E0F2DE0FB6F894DEBF25
:1002A0000FBECDBFD110B2C0DE2CCC24C80CD91CDF
:1002B00043E0D694C7944A95E1F7CC0CDD1CCC0CF6
:1002C000DD1CC60168EE73E0C5D04B012B01612C2B
:1002D000712CE12CF12C28EE33E040E050E0C3011A
:1002E000B2019FD0C61AD70AE80AF90AFF92EF9224
:1002F000DF92CF921F921F925F928F928BE690E0D7
:100300009F938F931F92BF921F930F93D9D00FB6D5
:10031000F894DEBF0FBECDBF892831F498ECC91622
:10032000D104E104F10410F0A0FE18C088E790E0C9
:100330009F938F931F92BF921F930F93C1D082E020
:10034000AFDEC801C1DE80ECABDEC801BDDE0F90C0
:100350000F900F900F900F900F9056C082E0A0DE8C
:100360008FE697E10197F1F700C000001986C801F8
:10037000ABDE80EC95DE8F89988D782F66278D898E
:100380009E89680F791F80E090E024E130E040E032
:1003900050E047D06B017C0120EA36E841E050E0B4
:1003A0006DD0A22E932E842E752EC701B60124E6A1
:1003B00030E040E050E062D069017A0128EE33E09D
:1003C00040E050E06A2D792D882D972D2AD0C61A4D
:1003D000D70AE80AF90AFF92EF92DF92CF927F9252
:1003E0008F929F92AF9281E890E09F938F931F929C
:1003F000BF921F930F9364D01986C80165DE0FB6B4
:10040000F894DEBF0FBECDBF85E0D82EDA949FE70B
:1004100028E381E0915020408040E1F700C00000D7
:10042000FBCEEE27FF27AA27BB2708C0A20FB31FCA
:10043000E41FF51F220F331F441F551F9695879504
:100440007795679598F37040A9F7009799F7BD01E4
:10045000CF010895AA1BBB1B51E107C0AA1FBB1FF8
:10046000A617B70710F0A61BB70B881F991F5A9540
:10047000A9F780959095BC01CD010895A1E21A2EAF
:10048000AA1BBB1BFD010DC0AA1FBB1FEE1FFF1F38
:10049000A217B307E407F50720F0A21BB30BE40B88
:1004A000F50B661F771F881F991F1A9469F76095CF
:1004B0007095809590959B01AC01BD01CF01089589
:1004C000AEE0B0E0E5E6F2E0C4C20D891E898F8996
:1004D000988D26E02C831A83098397FF02C080E061
:1004E00090E801979E838D83AE01455E5F4F698DD5
:1004F0007A8DCE01019611D04D815E8157FD0AC0E3
:100500002F813885421753070CF49A01F801E20F46
:10051000F31F10822E96E4E0B8C2ABE0B0E0E2E94F
:10052000F2E089C26C017B018A01FC01178216820C
:10053000838181FFC0C1CE0101963C01F601938108
:10054000F70193FD859193FF81917F01882309F441
:10055000AEC1853239F493FD859193FF81917F017E
:10056000853221F4B60190E0C1D1E8CF912C212C45
:10057000312CFFE1F315E0F08B3279F038F4803262
:1005800079F08332A9F4232D206110C08D3259F007
:10059000803371F4232D216009C0832D8260382EB1
:1005A000E32DE46022C0F32DF86025C0322E27C071
:1005B00037FC2DC020ED280F2A3088F436FE06C007
:1005C000892D6AE02FD2922E980E19C0822D6AE0F2
:1005D00029D2222E280E832D8062382E10C08E3212
:1005E00031F436FC64C1E32DE0643E2E08C08C3645
:1005F00021F4F32DF0683F2E02C0883641F4F70154
:1006000093FD859193FF81917F018111B2CF982F46
:100610009F7D9554933028F40C5F1F4F2FE329835F
:100620000DC0833631F0833771F0833509F055C042
:1006300020C0F801808189830E5F1F4F8824839436
:10064000912C530112C02801F2E04F0E511CF80109
:10065000A080B18036FE03C0692D70E002C06FEF4C
:100660007FEFC50138D14C018201F32DFF773F2E7A
:1006700015C0280122E0420E511CF801A080B18073
:1006800036FE03C0692D70E002C06FEF7FEFC50139
:1006900017D14C01F32DF0683F2E820133FC19C0B5
:1006A000822D90E088169906A0F4B60180E290E0D1
:1006B0001DD12A94F5CFF50137FC859137FE819144
:1006C0005F01B60190E012D121102A9421E0821A34
:1006D00091088114910479F7E1C0843611F08936CC
:1006E00039F5F80137FE07C06081718182819381FD
:1006F0000C5F1F4F08C060817181072E000C880BB2
:10070000990B0E5F1F4FF32DFF763F2E97FF09C009
:1007100090958095709561957F4F8F4F9F4FF068B2
:100720003F2E2AE030E0A3011DD1882E861844C058
:10073000853731F4232D2F7EB22E2AE030E025C0FC
:10074000932D997FB92E8F36C1F018F4883579F042
:10075000AEC0803719F0883721F0A9C0E92FE061D9
:10076000BE2EB4FE0DC0FB2DF460BF2E09C034FEBA
:100770000AC0292F2660B22E06C028E030E005C04E
:1007800020E130E002C020E132E0F801B7FE07C00E
:1007900060817181828193810C5F1F4F06C06081EF
:1007A000718180E090E00E5F1F4FA301DBD0882EA7
:1007B0008618FB2DFF773F2E36FE0DC0232D2E7F92
:1007C000A22E891458F434FE0BC032FC09C0832DCC
:1007D0008E7EA82E05C0B82CA32C03C0B82C01C057
:1007E000B92CA4FE0FC0FE01E80DF11D80818033FD
:1007F00021F49A2D997EA92E09C0A2FE06C0B394B9
:10080000B39404C08A2D867809F0B394A3FC10C079
:10081000A0FE06C0B21480F4280C922C9B180DC0C8
:10082000B21458F4B60180E290E060D0B394F8CFEF
:10083000B21418F42B1802C0982C212CA4FE0FC05F
:10084000B60180E390E052D0A2FE16C0A1FC03C026
:1008500088E790E002C088E590E0B6010CC08A2DE0
:10086000867851F0A1FE02C08BE201C080E2A7FCB5
:100870008DE2B60190E03AD0891430F4B60180E3FD
:1008800090E034D09A94F8CF8A94F301E80DF11DEA
:100890008081B60190E02AD08110F6CF222009F4A1
:1008A0004DCEB60180E290E021D02A94F7CFF60138
:1008B0008681978102C08FEF9FEF2B96E2E1D7C030
:1008C000FC010590615070400110D8F7809590951B
:1008D0008E0F9F1F0895FC01615070400190011020
:1008E000D8F7809590958E0F9F1F08950F931F93B3
:1008F000CF93DF93FB01238121FD03C08FEF9FEF97
:100900002CC022FF16C046815781248135814217B1
:10091000530744F4A081B1819D012F5F3F4F318384
:1009200020838C93268137812F5F3F4F3783268327
:1009300014C08B01EC01FB010084F185E02D0995C9
:10094000892BE1F6D80116968D919C911797019607
:1009500017969C938E931697CE01DF91CF911F919E
:100960000F910895FA01AA27283061F1203191F101
:10097000E8946F936E7F6E5F7F4F8F4F9F4FAF4FA7
:10098000B1E040D0B4E03ED0670F781F891F9A1FB6
:10099000A11D680F791F8A1F911DA11D6A0F711D6E
:1009A000811D911DA11D22D009F468943F91062E4E
:1009B000000C3019000C000C3019305D3193CEF66C
:1009C000CF010895462F4770405D4193B3E00FD0AB
:1009D000C9F7F6CF462F4F70405D4A3318F0495D96
:1009E00031FD4052419302D0A9F7EACFB4E0A69579
:1009F0009795879577956795BA95C9F7009761059B
:100A0000710508959B01AC010A2E069457954795F0
:100A100037952795BA95C9F7620F731F841F951FE5
:100A2000A01D0895002480FD060E660F11F0869526
:100A3000D1F7802D08952F923F924F925F926F923F
:100A40007F928F929F92AF92BF92CF92DF92EF925E
:100A5000FF920F931F93CF93DF93CDB7DEB7CA1BDF
:100A6000DB0B0FB6F894DEBF0FBECDBF09942A880A
:100A7000398848885F846E847D848C849B84AA84B2
:100A8000B984C884DF80EE80FD800C811B81AA813F
:100A9000B981CE0FD11D0FB6F894DEBF0FBECDBF0A
:080AA000ED010895F894FFCF69
:100AA8002530327825303278000A0025326C752ED0
:100AB8002530336C755620002D2020202020202042
:0E0AC8000025326C752E2530336C75412000F0
:00000001FF
