:100000000EC015C014C013C012C011C010C00FC064
:100010000EC00DC00CC00BC00AC009C008C011241E
:100020001FBECFE5D1E0DEBFCDBF68D09EC0E8CF18
:100030008F9387E099270197F1F78F910895BB98E7
:10004000BC98C398C4980895BB9AF2DF1DD0089558
:10005000BC9AEEDFBB98ECDFBC98EADFBB9AE8DF26
:1000600013D00895082EBB9AE3DF802D0DD088238E
:1000700011F002D0F8CF0895BC9ABB9AD9DFBC9892
:10008000D7DFBB98D5DF08950894881F01C0880F7B
:1000900059F0BC9A18F40000BB9802C0BB9A00C08B
:1000A000C7DFBC98C5DFF3CFBC9ABB98C1DFBC9853
:1000B000B49BFECF8827B39981E0BADF99270895D2
:1000C000882701C081E071E0BC9ABB98B1DFBC9881
:1000D000AFDFB49BFECF8894B3990894771FA0F745
:1000E000BC9A813011F0BB9801C0BB9AA1DFBC98CB
:1000F000B49BFECF9DDF872F992708958FEF87BB95
:1001000088BB9DDF82EAA0DF882319F0B5DF18BA2B
:100110002BC085E0B9DF85E7B7DFAEDF82EAA2DF7B
:1001200085E0B2DF83EA94DFCBDFC82FA5DFC0957F
:10013000C8BB82EA97DF80E0A7DF80E7A5DF81E721
:10014000A3DF82E7A1DF84E79FDF96DF82EA8ADF11
:1001500080E09ADF83EA7CDFB5DFB4DFB3DFB0DFB6
:0E016000C82F8ADFC095C8BBFFCFF894FFCF31
:00000001FF
