:1000000019C020C01FC01EC01DC01CC01BC01AC00C
:1000100019C018C017C016C015C014C013C012C034
:1000200011C010C00FC00EC00DC00CC00BC00AC064
:1000300009C008C011241FBECFEFCDBFDFE3DEBF74
:1000400043D195C1DDCF909104049B7F909304042C
:100050002FE62A95F1F7000098E02091040480FD36
:1000600015C02B7F2093040486952FE62A95F1F77F
:10007000000091509111F1CF80910404846080932D
:1000800004048FE68A95F1F7000008952460EACF12
:10009000CF93DF93EC018991811103C0DF91CF9160
:1000A0000895D1DFF8CF8091080482700895E0E0D0
:1000B000F4E082E082838683089582E080930104E5
:1000C00008958091080480780895E0E0F4E080E8E5
:1000D00082838683089580E8809301040895E7DF92
:1000E000F4DFE0E0F4E084818D7F848384818F7786
:1000F00084830895EF92FF920F931F93CF93DF9322
:10010000182F08E080E8F82E92E0E92EC5E0D0E054
:10011000F092010417FF24C0CADFCE010197F1F766
:10012000D4DFCE010197F1F7110F01500111F0CF8B
:1001300080E8809301042197F1F7C7DF80910804DC
:1001400087FFFCCF80910804E5E0F0E03197F1F7FC
:100150008270DF91CF911F910F91FF90EF900895E2
:10016000E0920104DACFCF93DF93E0E0F4E080E89F
:10017000818382E08183C5E0D0E0CE010197F1F771
:10018000A4DF83E090E00197F1F791DF2197F1F789
:10019000DF91CF910895EF92FF920F931F93CF932A
:1001A000DF93D82F18E0C0E000E885E0E82EF12CBE
:1001B000009301047CDFC7010197F1F786DFC701D7
:1001C0000197F1F78091080481FDC160113019F0A9
:1001D000CC0F1150EDCF80E880930104D130C1F4F1
:1001E00082E08093010485E090E00197F1F76DDFF4
:1001F0008091080487FFFCCF85E090E00197F1F73C
:100200008C2FDF91CF911F910F91FF90EF90089568
:100210004EDFE9CF92E090930104E3E0F0E0319704
:10022000F1F768CF1F93CF93DF93182FC0E0D4E08E
:1002300080E889833CDF85E090E00197F1F745DFB6
:10024000E3E0F0E0CF010197F1F782E08983319795
:10025000F1F7812FDF91CF911F914CCF0F931F9317
:10026000CF93DF93C82FD2E005E010E0D0930104D4
:10027000C8010197F1F78C2F3DDF882311F073DF60
:10028000F5CF80E0DF91CF911F910F9108958A30D3
:1002900010F4805D089596EF980F963010F4895A07
:1002A000089508951F93CF93DF93182FEB018F705C
:1002B000EEDF8983812F82958F70E9DF88831A8230
:1002C000DF91CF911F910895CDB7DEB76497CDBF71
:1002D000DEBF809100048460809300048091040458
:1002E000846080930404FBDE10E08AE0C82E1111C4
:1002F00004C082E793E8CCDE1AE0115080E88ADF80
:1003000081E0F8DE81E88EDF81E045DFD82E80E0F5
:1003100042DFE82E28DF80E87DDF82E0EBDE81E847
:1003200081DF81E038DFF82E80E035DF082F1BDF2A
:10033000BE016F5F7F4F8D2DB5DFBE016D5F7F4FBB
:100340008E2DB0DFBE016B5F7F4F8F2DABDFBE0107
:10035000695F7F4F802FA6DFC9861A86CE0101967E
:1003600097DE8DE890E20197F1F70000C0CFF89496
:02037000FFCFBD
:0A037200504C4455434D354D0A0030
:00000001FF
