:100000000EC020C01FC01EC01DC01CC01BC01AC017
:1000100019C018C017C016C015C014C013C01124D1
:100020001FBECFE5D1E0DEBFCDBF10E0A0E6B0E05F
:10003000ECE1FBE002C005900D92AE39B107D9F7B3
:10004000B4D06AC5DDCF2FB7F8949AE0E8B3E77F64
:10005000E8BB00000000000000000000EDECF0E054
:100060003197F1F70000E8B380FDE86080FFE77F9B
:10007000E8BB089487959A9589F72FBF0895CF9389
:10008000DF93EC018991882341F0DDDF8FE697E172
:100090000197F1F700C00000F5CFDF91CF910895EF
:1000A000CF93C82F8CE735D080E045D08C2F43D03C
:1000B000CF9139C0CF93C82F8CE72BD080E43BD0B1
:1000C0008C2F39D0CF912FC0CF93DF93EC01899142
:1000D000882311F0EFDFFBCFDF91CF9108958F934D
:1000E00087E099270197F1F78F910895B998BA9809
:1000F000C198C2980895B99AF2DF1DD00895BA9AAE
:10010000EEDFB998ECDFBA98EADFB99AE8DF13D0EE
:100110000895082EB99AE3DF802D0DD0882311F0C1
:1001200002D0F8CF0895BA9AB99AD9DFBA98D7DF32
:10013000B998D5DF08950894881F01C0880F59F039
:10014000BA9A18F40000B99802C0B99A00C0C7DF83
:10015000BA98C5DFF3CFBA9AB998C1DFBA98B29B03
:10016000FECF8827B19981E0BADF992708958827C3
:1001700001C081E071E0BA9AB998B1DFBA98AFDFF7
:10018000B29BFECF8894B1990894771FA0F7BA9AD2
:10019000813011F0B99801C0B99AA1DFBA98B29B29
:1001A000FECF9DDF872F99270895CF93DF93CDB79B
:1001B000DEB766970FB6F894DEBF0FBECDBF20E066
:1001C00030E080E80FB6F89486BD26BD0FBEBB9A1E
:1001D0008DDF13E0115029F12FEF82E597E02150D8
:1001E00080409040E1F700C00000B89AC09A88E3D0
:1001F00057DF89E355DF84E153DF8FE551DF8CE67C
:100200004FDF2FEF82E597E0215080409040E1F7EB
:1002100000C0000088E344DF8CE042DF81E040DF83
:10022000D9CFD12C8E010F5F1F4F69E0B62E80E829
:1002300070DF81E080DF81E862DF9BDFF82E97DFEF
:10024000E82E71DF80E865DF82E075DF81E857DF47
:1002500090DFC82E8CDFA82E66DF2E2C312C8F2D40
:1002600090E09E8B8D8B1F92EF921F92FF9280E603
:1002700090E09F938F931F9284E18F931F930F932E
:1002800059D1C801FCDEEC2CF12C8A2C912C1F9248
:10029000AF921F92CF9280E690E09F938F931F9230
:1002A00084E18F931F930F9345D1C801E8DE89E65F
:1002B00090E0E5DE0FB6F894DEBF0FBECDBFD110E3
:1002C000BCC0DE2CCC24C80CD91C43E0D694C79407
:1002D0004A95E1F7CC0CDD1CCC0CDD1CC60168EEA8
:1002E00073E0CFD04B012B01612C712CE12CF12C50
:1002F00028EE33E040E050E0C301B201A9D0C61AB5
:10030000D70AE80AF90AFF92EF92DF92CF921F9282
:100310001F925F928F928BE690E09F938F931F9234
:10032000BF921F930F9306D10FB6F894DEBF0FBE96
:10033000CDBF892831F498ECC916D104E104F10449
:1003400010F0A0FE0BC068E770E0C801ECD082E0BE
:10035000A7DEC801B9DE80ECA3DE6BC082E0A0DEC0
:100360008FE697E10197F1F700C000001986C801F8
:10037000ABDE80EC95DE8D899E89782F6627620D35
:10038000731D072E000C880B990B24E130E040E030
:1003900050E05ED024E630E040E050E0A8D02901F3
:1003A0003A0157FF08C0CC24DD247601C21AD30AD3
:1003B000E40AF50A02C069017A01C701B60128EE14
:1003C00033E040E050E071D0A22E932E842E252EF3
:1003D00028EE33E040E050E06A2D792D882D922DF3
:1003E00037D0C61AD70AE80AF90A77FE0BC0FF927F
:1003F000EF92DF92CF922F928F929F92AF9281E8ED
:1004000090E00AC0FF92EF92DF92CF922F928F92EC
:100410009F92AF928FE890E09F938F931F92BF922D
:100420001F930F9387D00FB6F894DEBF0FBECDBFDA
:100430001986C80149DE85E0D82EDA949FE728E3C3
:1004400081E0915020408040E1F700C00000EFCEF5
:10045000EE27FF27AA27BB2708C0A20FB31FE41F60
:10046000F51F220F331F441F551F969587957795CB
:10047000679598F37040A9F7009799F7BD01CF01F0
:100480000895AA1BBB1B51E107C0AA1FBB1FA617DB
:10049000B70710F0A61BB70B881F991F5A95A9F72D
:1004A00080959095BC01CD010895A1E21A2EAA1B5A
:1004B000BB1BFD010DC0AA1FBB1FEE1FFF1FA21714
:1004C000B307E407F50720F0A21BB30BE40BF50B11
:1004D000661F771F881F991F1A9469F7609570959A
:1004E000809590959B01AC01BD01CF010895052E2B
:1004F00097FB16F400940FD057FD05D0D6DF07FC0C
:1005000002D046F408C050954095309521953F4F54
:100510004F4F5F4F089590958095709561957F4FEF
:100520008F4F9F4F0895FB01DC0101900D92002039
:10053000E1F70895AEE0B0E0EFE9F2E0C4C20D8962
:100540001E898F89988D26E02C831A83098397FF53
:1005500002C080E090E801979E838D83AE01455EE6
:100560005F4F698D7A8DCE01019611D04D815E81EC
:1005700057FD0AC02F813885421753070CF49A01A2
:10058000F801E20FF31F10822E96E4E0B8C2ABE050
:10059000B0E0ECECF2E089C26C017B018A01FC0165
:1005A00017821682838181FFC0C1CE0101963C0172
:1005B000F6019381F70193FD859193FF81917F016E
:1005C000882309F4AEC1853239F493FD859193FFF8
:1005D00081917F01853221F4B60190E0C1D1E8CF4D
:1005E000912C212C312CFFE1F315E0F08B3279F0C6
:1005F00038F4803279F08332A9F4232D206110C0C1
:100600008D3259F0803371F4232D216009C0832D80
:100610008260382EE32DE46022C0F32DF86025C0FF
:10062000322E27C037FC2DC020ED280F2A3088F449
:1006300036FE06C0892D6AE02FD2922E980E19C080
:10064000822D6AE029D2222E280E832D8062382E38
:1006500010C08E3231F436FC64C1E32DE0643E2ECE
:1006600008C08C3621F4F32DF0683F2E02C0883686
:1006700041F4F70193FD859193FF81917F018111F1
:10068000B2CF982F9F7D9554933028F40C5F1F4F65
:100690002FE329830DC0833631F0833771F0833522
:1006A00009F055C020C0F801808189830E5F1F4F7B
:1006B00088248394912C530112C02801F2E04F0E3C
:1006C000511CF801A080B18036FE03C0692D70E096
:1006D00002C06FEF7FEFC50138D14C018201F32DCD
:1006E000FF773F2E15C0280122E0420E511CF80171
:1006F000A080B18036FE03C0692D70E002C06FEFAC
:100700007FEFC50117D14C01F32DF0683F2E820118
:1007100033FC19C0822D90E088169906A0F4B6012A
:1007200080E290E01DD12A94F5CFF50137FC859148
:1007300037FE81915F01B60190E012D121102A9419
:1007400021E0821A91088114910479F7E1C084367E
:1007500011F0893639F5F80137FE07C060817181E3
:10076000828193810C5F1F4F08C060817181072EC9
:10077000000C880B990B0E5F1F4FF32DFF763F2E59
:1007800097FF09C090958095709561957F4F8F4F29
:100790009F4FF0683F2E2AE030E0A3011DD1882E44
:1007A000861844C0853731F4232D2F7EB22E2AE0DF
:1007B00030E025C0932D997FB92E8F36C1F018F403
:1007C000883579F0AEC0803719F0883721F0A9C09C
:1007D000E92FE061BE2EB4FE0DC0FB2DF460BF2EEC
:1007E00009C034FE0AC0292F2660B22E06C028E0B8
:1007F00030E005C020E130E002C020E132E0F80145
:10080000B7FE07C060817181828193810C5F1F4FA9
:1008100006C06081718180E090E00E5F1F4FA301F0
:10082000DBD0882E8618FB2DFF773F2E36FE0DC0BD
:10083000232D2E7FA22E891458F434FE0BC032FCD7
:1008400009C0832D8E7EA82E05C0B82CA32C03C012
:10085000B82C01C0B92CA4FE0FC0FE01E80DF11D9B
:100860008081803321F49A2D997EA92E09C0A2FEA1
:1008700006C0B394B39404C08A2D867809F0B3946B
:10088000A3FC10C0A0FE06C0B21480F4280C922C69
:100890009B180DC0B21458F4B60180E290E060D00D
:1008A000B394F8CFB21418F42B1802C0982C212C52
:1008B000A4FE0FC0B60180E390E052D0A2FE16C0A5
:1008C000A1FC03C088E790E002C088E590E0B60193
:1008D0000CC08A2D867851F0A1FE02C08BE201C0C7
:1008E00080E2A7FC8DE2B60190E03AD0891430F4A2
:1008F000B60180E390E034D09A94F8CF8A94F30163
:10090000E80DF11D8081B60190E02AD08110F6CF6C
:10091000222009F44DCEB60180E290E021D02A9445
:10092000F7CFF6018681978102C08FEF9FEF2B965C
:10093000E2E1D7C0FC010590615070400110D8F78A
:10094000809590958E0F9F1F0895FC016150704017
:1009500001900110D8F7809590958E0F9F1F0895F4
:100960000F931F93CF93DF93FB01238121FD03C0DE
:100970008FEF9FEF2CC022FF16C046815781248144
:1009800035814217530744F4A081B1819D012F5F47
:100990003F4F318320838C93268137812F5F3F4FD8
:1009A0003783268314C08B01EC01FB010084F185A1
:1009B000E02D0995892BE1F6D80116968D919C9131
:1009C0001797019617969C938E931697CE01DF91F9
:1009D000CF911F910F910895FA01AA27283061F154
:1009E000203191F1E8946F936E7F6E5F7F4F8F4F50
:1009F0009F4FAF4FB1E040D0B4E03ED0670F781FBB
:100A0000891F9A1FA11D680F791F8A1F911DA11DA3
:100A10006A0F711D811D911DA11D22D009F46894DA
:100A20003F91062E000C3019000C000C3019305D7F
:100A30003193CEF6CF010895462F4770405D419324
:100A4000B3E00FD0C9F7F6CF462F4F70405D4A3361
:100A500018F0495D31FD4052419302D0A9F7EACF29
:100A6000B4E0A6959795879577956795BA95C9F758
:100A700000976105710508959B01AC010A2E06944B
:100A80005795479537952795BA95C9F7620F731F04
:100A9000841F951FA01D0895002480FD060E660F7B
:100AA00011F08695D1F7802D08952F923F924F92A5
:100AB0005F926F927F928F929F92AF92BF92CF92EE
:100AC000DF92EF92FF920F931F93CF93DF93CDB7F7
:100AD000DEB7CA1BDB0B0FB6F894DEBF0FBECDBF6F
:100AE00009942A88398848885F846E847D848C8440
:100AF0009B84AA84B984C884DF80EE80FD800C8149
:100B00001B81AA81B981CE0FD11D0FB6F894DEBF2B
:0C0B10000FBECDBFED010895F894FFCF9B
:100B1C002530327825303278000A0025326C752E5B
:100B2C002530336C755620002D20202020202020CD
:100B3C00003E25316C752E2530336C75413E003CE2
:0E0B4C0025316C752E2530336C75413C000050
:00000001FF
