:100000000EC015C014C013C012C011C010C00FC064
:100010000EC00DC00CC00BC00AC009C008C011241E
:100020001FBECFE5D1E0DEBFCDBF68D09EC0E8CF18
:100030008F9387E099270197F1F78F910895B998E9
:10004000BA98C198C2980895B99AF2DF1DD0089560
:10005000BA9AEEDFB998ECDFBA98EADFB99AE8DF2E
:1000600013D00895082EB99AE3DF802D0DD0882390
:1000700011F002D0F8CF0895BA9AB99AD9DFBA9898
:10008000D7DFB998D5DF08950894881F01C0880F7D
:1000900059F0BA9A18F40000B99802C0B99A00C091
:1000A000C7DFBA98C5DFF3CFBA9AB998C1DFBA985B
:1000B000B29BFECF8827B19981E0BADF99270895D6
:1000C000882701C081E071E0BA9AB998B1DFBA9887
:1000D000AFDFB29BFECF8894B1990894771FA0F749
:1000E000BA9A813011F0B99801C0B99AA1DFBA98D3
:1000F000B29BFECF9DDF872F992708958FEF87BB97
:1001000088BB9DDF82EAA0DF882319F0B5DF18BA2B
:100110002BC085E0B9DF85E7B7DFAEDF82EAA2DF7B
:1001200085E0B2DF83EA94DFCBDFC82FA5DFC0957F
:10013000C8BB82EA97DF80E0A7DF80E7A5DF81E721
:10014000A3DF82E7A1DF84E79FDF96DF82EA8ADF11
:1001500080E09ADF83EA7CDFB5DFB4DFB3DFB0DFB6
:0E016000C82F8ADFC095C8BBFFCFF894FFCF31
:00000001FF
