:1000000019C020C01FC01EC01DC01CC01BC01AC00C
:1000100019C018C017C016C015C014C013C012C034
:1000200011C010C00FC00EC00DC00CC00BC00AC064
:1000300009C008C011241FBECFEFCDBFDFE3DEBF74
:1000400025D2CBC3DDCF909104049B7F9093040411
:100050002FE62A95F1F7000098E02091040480FD36
:1000600015C02B7F2093040486952FE62A95F1F77F
:10007000000091509111F1CF80910404846080932D
:1000800004048FE68A95F1F7000008952460EACF12
:10009000CF93DF93EC018991811103C0DF91CF9160
:1000A0000895D1DF81E493E00197F1F70000F3CFE9
:1000B0008091080482700895E0E0F4E082E0828399
:1000C0008683089582E08093010408958091080456
:1000D00080780895E0E0F4E080E8828386830895E4
:1000E00080E8809301040895E7DFF4DFE0E0F4E0C6
:1000F00084818D7F848384818F7784830895DCDF7E
:10010000E9DF85E090E00197F1F7E0E0F4E0808539
:1001100080E881830895EF92FF920F931F93CF930E
:10012000DF93182F08E080E8F82E92E0E92EC5E072
:10013000D0E0F092010417FF24C0BEDFCE0101978A
:10014000F1F7C8DFCE010197F1F7110F015001114E
:10015000F0CF80E8809301042197F1F7BBDF809115
:10016000080487FFFCCF80910804E5E0F0E03197B8
:10017000F1F78270DF91CF911F910F91FF90EF9077
:100180000895E0920104DACFEF92FF920F931F934C
:10019000CF93DF93182F08E080E8F82E92E0E92E45
:1001A000C5E0D0E0F092010417FF23C085DFCE0147
:1001B0000197F1F78FDFCE010197F1F7110F015091
:1001C0000111F0CF80E8809301042197F1F782DFDD
:1001D0008091080487FFFCCF92DF85E090E00197D3
:1001E000F1F780E0DF91CF911F910F91FF90EF9099
:1001F0000895E0920104DBCFCF93DF93E0E0F4E0D9
:1002000080E8818382E08183C5E0D0E0CE01019760
:10021000F1F760DF83E090E00197F1F74DDF219780
:10022000F1F7DF91CF910895EF92FF920F931F9313
:10023000CF93DF93D82F18E0C0E000E885E0E82EE8
:10024000F12C0093010438DFC7010197F1F742DF79
:10025000C7010197F1F78091080481FDC160113059
:1002600019F0CC0F1150EDCF80E880930104D1300C
:10027000C1F482E08093010485E090E00197F1F7FA
:1002800029DF8091080487FFFCCF85E090E001978B
:10029000F1F78C2FDF91CF911F910F91FF90EF908D
:1002A00008950ADFE9CF92E090930104E3E0F0E0E3
:1002B0003197F1F730CF1F93CF93DF93182FC0E022
:1002C000D4E080E88983F8DE85E090E00197F1F7DB
:1002D00001DFE3E0F0E0CF010197F1F782E08983ED
:1002E0003197F1F7812FDF91CF911F9114CF0F93A9
:1002F0001F93CF93DF93C82FD2E005E010E0D09397
:100300000104C8010197F1F78C2F05DF882311F054
:1003100073DFF5CF80E0DF91CF911F910F910895AA
:10032000CF93C82F80E830DF8C2FCF912DCFCF9384
:10033000C82F80E029DF8C2FCF9126CFCF93C82FF5
:100340008CE7D5DF80E820DF8C2F1EDFCF9154CFE4
:10035000CF93C82F8CE7CBDF80E416DF8C2F14DF20
:10036000CF914ACFCF93DF93EC018991811103C0E4
:10037000DF91CF910895ECDFF8CF8CE7B8DF88E309
:10038000CFDF89E3CDDF8CE1CBDF86E7C9DF86E510
:10039000C7DF8CE6C5DF8CE0C3DF81E0C1DF2CCF97
:1003A0008A3010F4805D089596EF980F963010F41F
:1003B000895A089508951F93CF93DF93182FEB0167
:1003C0008F70EEDF8983812F82958F70E9DF8883BC
:1003D0001A82DF91CF911F910895CF92DF92EF9211
:1003E000FF920F931F93CF93DF93FC01A62F372F1C
:1003F000BA018A2F932F11E06A30710581059105AA
:10040000A8F012E0643671058105910578F013E0DB
:10041000683E33E073078105910540F014E06031D8
:10042000A7E27A078105910508F015E0011708F4A5
:10043000102F30E0C02FD0E07E01E11AF108432FE9
:1004400050E04E155F059CF0CE0FDF1F00E02AE064
:10045000C22ED12CE12CF12C10130FC0DF91CF91C3
:100460001F910F91FF90EF90DF90CF9008954E0F66
:100470005F1FDA012C933F5FE2CFA70196015CD1A9
:10048000605D6A93B901CA010F5FE6CFCDB7DEB7F1
:100490006497CDBFDEBF8091000484608093000428
:1004A000809104048460809304041EDE8091000423
:1004B0008860809300048091040488608093040421
:1004C0008AE191E40197F1F700C080910404877FED
:1004D00080930404AAE1B1E41197F1F700C0809180
:1004E00004048860809304048AE191E40197F1F7A1
:1004F00000C043DFA2ECB2EA1197F1F700C08EED25
:1005000097E830DF80EC1ADF87EE97E82BDFBAE25E
:100510002CE23AE0B15020403040E1F7000081E0A9
:100520000DDF10E0CE0101966C014CE1A42E5EE2DD
:10053000B52E4E0194E0890E911C3E01A2E06A0E98
:10054000711C80E8B0DE84E0E6DD81E8B4DE81E0A5
:100550006BDEE82E80E068DEF82E4EDE80E8A3DE5B
:1005600085E0D9DD81E8A7DE81E05EDE082F80E04E
:100570005BDE582E41DEB6018E2D1DDFBE016D5FA4
:100580007F4F8F2D18DFBE016B5F7F4F802F13DFF2
:10059000BE01695F7F4F852D0EDFA986BAE0BA875D
:1005A0001B86C60175DDC88AD98A1111A5C010E065
:1005B000102F0027050D111D46E050E060E270E0AD
:1005C000C60104D11801220C331C200E311E23E079
:1005D000169507952A95E1F7200E311EC10168EEA8
:1005E00073E096D0AB01412C512C9B01A8EEB3E0F7
:1005F000E1D06C877D878E879F87261A370A480A45
:10060000590A60E070E002E020E2C601E6DEBB824B
:1006100003E020E3B201A101C401DFDE26E52F8360
:10062000188682E08BDE83EC99E00197F1F700C039
:1006300000001986C60196DE45E050E060E270E0F9
:10064000C301C4D080EC7ADE8E2D90E0982F8827ED
:10065000DC01AF0DB11D7D01CD01BB0FAA0BBB0BA2
:10066000BC01CD012AE030E040E050E087D08A8A2A
:10067000192D6B8A7C8A97EFE9169FEFF9060CF02B
:1006800042C088279927DC01821B930BA40BB50B72
:100690008C879D87AE87BF876C857D858E859F857E
:1006A00028EE33E040E050E047D019012A016C8782
:1006B0007D878E879F8701E020E2B201A1018B89AF
:1006C0009C898BDEBB8203E020E34C855D856E85D3
:1006D0007F858A89912F81DE8CE397EFE9169FEF62
:1006E000F9060CF48EE391E49F8389838887198649
:1006F0008889998937DE15E01150A2ECB2EA11978A
:10070000F1F700C01ECF2C873D874E875F87C4CF8F
:10071000AA1BBB1B51E107C0AA1FBB1FA617B70727
:1007200010F0A61BB70B881F991F5A95A9F7809543
:100730009095BC01CD010895A1E21A2EAA1BBB1B06
:10074000FD010DC0AA1FBB1FEE1FFF1FA217B3079D
:10075000E407F50720F0A21BB30BE40BF50B661FB3
:10076000771F881F991F1A9469F760957095809577
:1007700090959B01AC01BD01CF010895052E97FB1B
:1007800016F400940FD057FD05D0D6DF07FC02D039
:1007900046F408C050954095309521953F4F4F4FF6
:1007A0005F4F089590958095709561957F4F8F4F1D
:1007B0009F4F0895A29FB001B39FC001A39F01D096
:1007C000B29F700D811D1124911D0895DC0101C09F
:0E07D0006D9341505040E0F70895F894FFCF2C
:0F07DE00504C442D55534243004D6574657200D5
:00000001FF
