:1000000019C020C01FC01EC01DC01CC01BC01AC00C
:1000100019C018C017C016C015C014C013C012C034
:1000200011C010C00FC00EC00DC00CC00BC00AC064
:1000300009C008C011241FBECFEFCDBFDFE3DEBF74
:100040008AD216C7DDCF9B0192E0672B09F04DC025
:100050009093260494E09093260490E887FF48C08C
:100060009093050490E486FF46C09093050490E2C7
:1000700085FF44C09093050490E184FF42C09093B3
:10008000050498E09093250400C000C090932604D6
:1000900090E883FF39C09093050490E482FF37C055
:1000A0009093050490E281FF35C09093050480FF92
:1000B00034C080E18093050488E08093250400C06B
:1000C00000C08093260480E88093050480E4809338
:1000D000050480E28093050480E180930504232BCE
:1000E00019F082E080932604089590932504B2CFFE
:1000F00090930604B7CF90930604B9CF909306046B
:10010000BBCF90930604BDCF90930604C6CF9093C7
:100110000604C8CF90930604CACF80E180930604FA
:10012000CBCF813009F055C082E08093250484E074
:100130008093250480E18093020480E2809302048E
:1001400080E48093020480E88093020488E0809336
:1001500025048FE68A95F1F70000809108048078E5
:100160009091080496FD80649091080495FD80624A
:100170009091080494FD806198E09093260400C05B
:1001800000C09093250400C000C09091080497FD22
:1001900088609091080496FD84609091080495FD14
:1001A00082609091080494FD816098E09093260409
:1001B00090E19093010490E29093010490E4909375
:1001C000010490E89093010494E09093260490E059
:1001D000089582E080932604AACF80E0A2DF87FD05
:1001E000FCCF8FE68A95F1F7000080E09ADF90E07F
:1001F0000895CF93C82FF1DF60E070E08C2FCF918E
:1002000022CFCF93C82FE9DF61E070E08C2FCF9130
:100210001ACFCF93DF93EC018991811103C0DF9155
:10022000CF910895EEDFF8CF6E5F6295660F660F8F
:10023000607C860FDECF81E0DCCF82E0DACFCF9327
:10024000DF93A0E0B4E090E111969C93119720E237
:1002500011962C93119730E411963C93119740E836
:1002600011964C931197E0E2F4E088E0818354E02A
:10027000518362E0618366835683868316964C932E
:10028000169716963C93169715962C9315971596D8
:100290009C931597858300C000C08683CAE1D1E492
:1002A0002197F1F700C0858300C000C08683C2E8B3
:1002B000D6E02197F1F700C0858300C000C0868397
:1002C000C2E8D6E02197F1F700C016969C9385838B
:1002D00000C000C0868385E392E80197F1F7000033
:1002E0008CE087DF9FE69A95F1F7000086E081DFDA
:1002F000C2E8D6E02197F1F700C081E07ADF82E81A
:1003000096E00197F1F700C0DF91CF9108959091A9
:1003100024049E7F909324042FE62A95F1F7000091
:1003200098E02091240480FD15C02E7F20932404A2
:1003300086952FE62A95F1F7000091509111F1CFA3
:10034000809124048160809324048FE68A95F1F7DC
:10035000000008952160EACFCF93DF93EC018991EB
:10036000811103C0DF91CF910895D1DFF8CF809143
:10037000080484700895E0E0F4E084E082838683DA
:10038000089584E0809301040895809108048870A2
:100390000895E0E0F4E088E082838683089588E0B1
:1003A000809301040895E7DFF4DFE0E0F4E0848166
:1003B0008B7F84838481877F84830895EF92FF926B
:1003C0000F931F93CF93DF93182F08E088E0F82E48
:1003D00094E0E92EC5E0D0E0F092010417FF24C0BC
:1003E000CADFCE010197F1F7D4DFCE010197F1F713
:1003F000110F01500111F0CF88E080930104219783
:10040000F1F7C7DF8091080483FFFCCF80910804D7
:10041000E5E0F0E03197F1F78470DF91CF911F9123
:100420000F91FF90EF900895E0920104DACFCF93FF
:10043000DF93E0E0F4E088E0818384E08183C5E03D
:10044000D0E0CE010197F1F7A4DF83E090E00197BF
:10045000F1F791DF2197F1F7DF91CF910895EF92B6
:10046000FF920F931F93CF93DF93D82F18E0C0E034
:1004700008E085E0E82EF12C009301047CDFC70141
:100480000197F1F786DFC7010197F1F78091080422
:1004900082FDC160113019F0CC0F1150EDCF88E012
:1004A00080930104D130C1F484E08093010485E09D
:1004B00090E00197F1F76DDF8091080483FFFCCF96
:1004C00085E090E00197F1F78C2FDF91CF911F919C
:1004D0000F91FF90EF9008954EDFE9CF94E0909355
:1004E0000104E3E0F0E03197F1F768CF1F93CF9379
:1004F000DF93182FC0E0D4E088E089833CDF85E0FB
:1005000090E00197F1F745DFE3E0F0E0CF010197DC
:10051000F1F784E089833197F1F7812FDF91CF9153
:100520001F914CCF0F931F93CF93DF93C82FD4E02D
:1005300005E010E0D0930104C8010197F1F78C2F7A
:100540003DDF882311F073DFF5CF80E0DF91CF919D
:100550001F910F910895CDB7DEB7A097CDBFDEBF35
:100560006EDE8091200481608093200480912404B9
:1005700081608093240417DF84E79EE8EDDEF12C90
:1005800061E1A62E78EE472E73E0572E612C712C78
:1005900080E8A4DF81E012DF81E8A8DF81E05FDF8F
:1005A000E82E80E05CDF882E42DF80E897DF82E083
:1005B00005DF81E89BDF81E052DF982E80E04FDF8E
:1005C000B82E35DF282C312C8E2D90E0898F9A8F14
:1005D0000B2D10E01F92BF92C92CD12C1F929F921D
:1005E0001F928F921F92EF92A6E8BEE8BF93AF933F
:1005F0001F9264E16F9381E090E08C0F9D1F9F93A9
:100600008F9342D1CE010196A7DECDBFDEBFF110A0
:1006100042C0DC2CCC240C0D1D1D43E01695079523
:100620004A95E1F7000F111F000F111FC80168EE76
:1006300073E0BFD09B01CB01A0E0B0E08D8B9E8B1F
:10064000AF8BB88F6801E12CF12CA8EEB3E003D199
:100650006D8F7E8F8F8F98A3C61AD70AE80AF90A82
:10066000083E134030F4A8ECCA16D104E104F104AA
:1006700010F0B0FE17C068E97EE8CE010196FDD00B
:10068000DCDDCE010196C5DD80ECB3DDCE01019647
:10069000C0DD85E0F82EFA94A2ECB2EA1197F1F7EA
:1006A00000C076CFFF92EF92DF92CF921F921F92FF
:1006B000BE89BF932D892F9389EA9EE89F938F93DC
:1006C0001F92AF9281E090E08C0F9D1F9F938F93BC
:1006D000DBD081E88EDDCE0101969BDD898D9A8D80
:1006E000B82FAA27A20DB31D24E130E0C0D06D8B36
:1006F0007E8B8F8B988F24E630E040E050E08FD0E7
:10070000CDBFDEBF8D899E89AF89B88D8D399F4F52
:10071000AF4FBF4F0CF040C088279927DC01821BE8
:10072000930BA40BB50B898F9A8FAB8FBC8F698D00
:100730007A8D8B8D9C8DA30192014FD09F938F93C7
:100740007F936F935F934F933F932F93A5EBBEE8F7
:10075000BF93AF931F92AF9281E090E08C0F9D1FEB
:100760009F938F9391D089E844DDCE01019651DDAE
:10077000CDBFDEBF8D899E89AF89B88D8436910546
:10078000A105B10574F080E834DD8EE33ADD8FE831
:1007900030DD8EE336DD7DCF298F3A8F4B8F5C8F36
:1007A000C6CF80E826DD8CE32CDD8FE822DD8CE3EC
:1007B000F1CFAA1BBB1B51E107C0AA1FBB1FA61785
:1007C000B70710F0A61BB70B881F991F5A95A9F7FA
:1007D00080959095BC01CD010895A1E21A2EAA1B27
:1007E000BB1BFD010DC0AA1FBB1FEE1FFF1FA217E1
:1007F000B307E407F50720F0A21BB30BE40BF50BDE
:10080000661F771F881F991F1A9469F76095709566
:10081000809590959B01AC01BD01CF010895052EF7
:1008200097FB16F400940FD057FD05D0D6DF07FCD8
:1008300002D046F408C050954095309521953F4F21
:100840004F4F5F4F089590958095709561957F4FBC
:100850008F4F9F4F0895A29FB001B39FC001A39FE8
:1008600001D0B29F700D811D1124911D0895F3DFF9
:10087000B7FF0895821B930B0895FB01DC010190E3
:100880000D920020E1F70895AEE0B0E0E9E4F4E075
:10089000CCC20D891E8986E08C8309831A838F89D7
:1008A000988D813020E8920710F080E090E8019761
:1008B0008D839E83AE01455E5F4F698D7A8DCE013B
:1008C000019611D04D815E8157FD0AC02F81388578
:1008D000421753070CF49A01020F131FF8011082FC
:1008E0002E96E4E0BBC2AFE0B0E0E8E7F4E092C2ED
:1008F0006C017B018A01DC0116961D921C921797F0
:1009000013968C9181FFDCC12AE0522EF60193816F
:10091000F70193FD859193FF81917F01882309F46D
:100920006FC0853239F493FD859193FF81917F01EA
:10093000853221F4B60190E0DCD1E8CF912C612C16
:10094000712CFFE1F71508F443C08B32B1F1E8F4E4
:100950008032A9F18332C9F1833609F486C0833726
:1009600009F48FC0833509F0AFC0F801A190B190B0
:100970008F01692D70E076FC02C06FEF7FEFC5013B
:10098000A2D14C01689477F85DC08D32D9F08033E4
:1009900049F020ED280F2A3040F18E32C1F56894DD
:1009A00076F802C0689470F8F70193FD859193FF83
:1009B00081917F018111C5CF32C0689471F868942C
:1009C00072F8F2CF689473F8EFCF689474F8ECCFB4
:1009D00077FC25C020ED280F2A3070F476FE05C084
:1009E000959C200D1124922EDFCF659C200D1124A3
:1009F000622E689475F8D8CF8E3249F476FECFCF48
:100A0000D60116968D919C912F96EFE01CC28C36E4
:100A100019F4689477F8C8CF883609F4C5CF982FB1
:100A20009F7D9554933008F097CF0C5F1F4F8FE355
:100A3000898388248394912CAE014F5F5F4F5A01C4
:100A4000E89477F873FC05C0862D90E08816990627
:100A500030F18114910449F5662009F457CFB601AD
:100A600080E290E046D16A94F7CFD8018C918983D7
:100A70000E5F1F4F88248394912CFE0131965F01F5
:100A8000DFCFD801AD90BD908D01692D70E076FC6F
:100A900002C06FEF7FEFC50121D14C01D1CFB6016C
:100AA00080E290E026D16A94CFCFF50177FC859162
:100AB00077FE81915F01B60190E01BD161106A94CD
:100AC000F1E08F1A9108C5CF843619F0893609F004
:100AD0007DC0F80177FE73C0619171918191919110
:100AE0008F01272D2F76822E97FF09C09095809534
:100AF000709561957F4F8F4F9F4F689487F82AE0DC
:100B000030E0AE014F5F5F4F5A0123D18A19A82E02
:100B1000BA2C782C86FE0CC0E89470F8A91440F426
:100B200084FE05C082FC03C0782D7E7E772EB92C12
:100B300074FEA1C0FE01EA0DF11D8081803309F031
:100B400093C0872D897E782E73FC0EC070FEA1C0E5
:100B50009A2CB61418F4960C9B18B62C862D8B196B
:100B60006B1408F480E0B80EB61408F094C06B184B
:100B700074FE93C0B60180E390E0BBD072FE08C063
:100B800088E590E071FC02C088E790E0B601B1D042
:100B9000A91408F48FC0AA94B12C9FEFA91AB90A1E
:100BA000DE0111964D01AA0EBB1EF50182915F0177
:100BB000B60190E09ED08A149B04B9F74DCF6191A5
:100BC0007191072E000C880B990B8ACF872CE89423
:100BD00084F82AE030E0853769F0572D597F852E5B
:100BE000803769F110F5883569F18F3609F008CF43
:100BF00028E030E0F80187FE2DC081919191A1910C
:100C0000B1918C879D87AE87BF878F01BE016F5FD3
:100C10007F4F5B01AB016C857D858E859F8599D06B
:100C20008A19A82EE89487F873CF883709F0E8CEA0
:100C300084FE02C0689482F820E130E0DBCF689443
:100C400084F8F6CF74FE03C0652F6660862E20E11F
:100C500032E0D0CF81919191AC0160E070E04C879F
:100C60005D876E877F87D1CF72FC02C0B3946CCF53
:100C7000B394B39469CF872D8678882309F464CF21
:100C8000F5CFB60180E290E034D083948614C8F3A7
:100C900065CF8B2CFBCF612C6BCF872D867888237B
:100CA00009F476CF8BE271FE80E277FC8DE2B6012B
:100CB00090E06DCFB60180E390E01BD09A9468CFAE
:100CC0008FEF9FEFA1CEFC010590615070400110A5
:100CD000D8F7809590958E0F9F1F0895FC01615065
:100CE000704001900110D8F7809590958E0F9F1F4E
:100CF00008950F931F93CF93DF93182F092FEB01C4
:100D00008B8181FD09C01FEF0FEF812F902FDF91A5
:100D1000CF911F910F91089582FF14C02E813F81C2
:100D20008C819D81281739073CF4E881F981CF0136
:100D300001968883998310838E819F8101968E838B
:100D40009F83E3CFE885F985812F0995892BA1F34E
:100D5000DACFFA01AA27283051F1203181F1E89445
:100D60006F936E7F6E5F7F4F8F4F9F4FAF4FB1E09E
:100D70003ED0B4E03CD0670F781F891F9A1FA11D99
:100D8000680F791F8A1F911DA11D6A0F711D811D9A
:100D9000911DA11D20D009F468943F912AE0269F5F
:100DA00011243019305D3193DEF6CF010895462FBE
:100DB0004770405D4193B3E00FD0C9F7F6CF462F9F
:100DC0004F70405D4A3318F0495D31FD4052419308
:100DD00002D0A9F7EACFB4E0A695979587957795C5
:100DE0006795BA95C9F700976105710508959B014C
:100DF000AC010A2E06945795479537952795BA95D5
:100E0000C9F7620F731F841F951FA01D08952F92AD
:100E10003F924F925F926F927F928F929F92AF928A
:100E2000BF92CF92DF92EF92FF920F931F93CF93D7
:100E3000DF93CDB7DEB7CA1BDB0BCDBFDEBF099496
:100E40002A88398848885F846E847D848C849B845A
:100E5000AA84B984C884DF80EE80FD800C811B8168
:100E6000AA81B981CE0FD11DCDBFDEBFED0108959E
:040E7000F894FFCF24
:100E74000D0A504C442D55434D342D543431340D0A
:100E84000A00253032782530327825303278253002
:100E940032780A002D20202020202020202020200D
:100EA400202020200025326C752E2530336C755699
:0D0EB4000025316C752E2530336C75410022
:00000001FF
