:1000000019C020C01FC01EC01DC01CC01BC01AC00C
:1000100019C018C017C016C015C014C013C012C034
:1000200011C010C00FC00EC00DC00CC00BC00AC064
:1000300009C008C011241FBECFEFCDBFDFE3DEBF74
:10004000AFD16FC6DDCF909124049E7F909324049E
:100050002FE62A95F1F7000098E02091240480FD16
:1000600015C02E7F2093240486952FE62A95F1F75C
:10007000000091509111F1CF809124048160809310
:1000800024048FE68A95F1F7000008952160EACFF5
:10009000CF93DF93EC018991811103C0DF91CF9160
:1000A0000895D1DF81E493E00197F1F70000F3CFE9
:1000B0008091080484700895E0E0F4E084E0828395
:1000C0008683089584E08093010408958091080454
:1000D00088700895E0E0F4E088E0828386830895E4
:1000E00088E0809301040895E7DFF4DFE0E0F4E0C6
:1000F00084818B7F84838481877F84830895DCDF80
:10010000E9DF85E090E00197F1F7E0E0F4E0808539
:1001100088E081830895EF92FF920F931F93CF930E
:10012000DF93182F08E088E0F82E94E0E92EC5E070
:10013000D0E0F092010417FF24C0BEDFCE0101978A
:10014000F1F7C8DFCE010197F1F7110F015001114E
:10015000F0CF88E0809301042197F1F7BBDF809115
:10016000080483FFFCCF80910804E5E0F0E03197BC
:10017000F1F78470DF91CF911F910F91FF90EF9075
:100180000895E0920104DACFEF92FF920F931F934C
:10019000CF93DF93182F08E088E0F82E94E0E92E43
:1001A000C5E0D0E0F092010417FF23C085DFCE0147
:1001B0000197F1F78FDFCE010197F1F7110F015091
:1001C0000111F0CF88E0809301042197F1F782DFDD
:1001D0008091080483FFFCCF92DF85E090E00197D7
:1001E000F1F780E0DF91CF911F910F91FF90EF9099
:1001F0000895E0920104DBCFCF93DF93E0E0F4E0D9
:1002000088E0818384E08183C5E0D0E0CE0101975E
:10021000F1F760DF83E090E00197F1F74DDF219780
:10022000F1F7DF91CF910895EF92FF920F931F9313
:10023000CF93DF93D82F18E0C0E008E085E0E82EE8
:10024000F12C0093010438DFC7010197F1F742DF79
:10025000C7010197F1F78091080482FDC160113058
:1002600019F0CC0F1150EDCF88E080930104D1300C
:10027000C1F484E08093010485E090E00197F1F7F8
:1002800029DF8091080483FFFCCF85E090E001978F
:10029000F1F78C2FDF91CF911F910F91FF90EF908D
:1002A00008950ADFE9CF94E090930104E3E0F0E0E1
:1002B0003197F1F730CF1F93CF93DF93182FC0E022
:1002C000D4E088E08983F8DE85E090E00197F1F7DB
:1002D00001DFE3E0F0E0CF010197F1F784E08983EB
:1002E0003197F1F7812FDF91CF911F9114CF0F93A9
:1002F0001F93CF93DF93C82FD4E005E010E0D09395
:100300000104C8010197F1F78C2F05DF882311F054
:1003100073DFF5CF80E0DF91CF911F910F910895AA
:10032000CF93C82F80E830DF8C2FCF912DCFCF9384
:10033000C82F80E029DF8C2FCF9126CFCF93C82FF5
:100340008CE7D5DF80E820DF8C2F1EDFCF9154CFE4
:10035000CF93C82F8CE7CBDF80E416DF8C2F14DF20
:10036000CF914ACFCF93DF93EC018991811103C0E4
:10037000DF91CF910895ECDFF8CF8CE7B8DF88E309
:10038000CFDF89E3CDDF8CE1CBDF86E7C9DF86E510
:10039000C7DF8CE6C5DF8CE0C3DF81E0C1DF2CCF97
:1003A000CDB7DEB76C97CDBFDEBF809120048160F2
:1003B000809320048091240481608093240494DE3F
:1003C0008091000482608093000480910404826024
:1003D000809304048AE191E40197F1F700C08091D1
:1003E00004048D7F80930404AAE1B1E41197F1F72E
:1003F00000C0809104048260809304048AE191E447
:100400000197F1F700C0B9DFA2ECB2EA1197F1F75A
:1004100000C086E29DE8A6DF80EC90DF8FE29DE8D9
:10042000A1DFB4E528E584E1B15020408040E1F748
:1004300000C000C081E082DF85E39DE829DE512C09
:1004400069E0E62E78EE872E73E0972EA12CB12C72
:1004500080E829DF81E05FDE81E82DDF81E0E4DEF6
:10046000482E80E0E1DE382EC7DE80E81CDF82E027
:1004700052DE81E820DF81E0D7DE282E80E0D4DE66
:10048000F82EBADE632C712CA42DB0E0AD8BBE8BA0
:100490000F2D10E01F92FF92C22CD12C1F922F9291
:1004A0001F923F921F924F9287E49DE89F938F93F4
:1004B0001F92B4E1BF9381E090E08C0F9D1F9F934A
:1004C0008F933BD1CE010196E3DDCDBFDEBF51104E
:1004D00054C0DC2CCC240C0D1D1D43E01695079553
:1004E0004A95E1F7000F111F000F111FC80168EEB8
:1004F00073E0B8D0AB011801412C512C9B01A8EE40
:10050000B3E002D1698F7A8F8B8F9C8F261A370ABE
:10051000480A590A5F924F923F922F921F921F9260
:100520005F934F9389E59DE89F938F931F92EF927E
:1005300081E090E08C0F9D1F9F938F93FED0CDBFE5
:10054000DEBF083E134030F428EC2216310441048B
:10055000510410F0F0FE18C066E67DE8CE01019669
:10056000E5D082E0EBDECE010196FCDE80ECE6DE3B
:10057000CE010196F7DE85E0582E5A9482EC92EA7D
:100580000197F1F700C064CF82E0D8DE83EC99E0F8
:100590000197F1F700C000001986CE010196E2DE56
:1005A00080ECCCDE8D899E89B82FAA27A60DB71DB9
:1005B00024E130E0B5D0698F7A8F8B8F9C8F24E651
:1005C00030E040E050E084D02D8B3E8B4F8B588F35
:1005D000898D9A8DAB8DBC8D8D399F4FAF4FBF4F9D
:1005E0006CF58D899E89AF89B88DB095A095909551
:1005F00081959F4FAF4FBF4F8D8B9E8BAF8BB88F29
:10060000BC01CD01A501940141D09F938F937F93AD
:100610006F935F934F933F932F93AFE6BDE8BF93E4
:10062000AF931F92EF9281E090E08C0F9D1F9F93FC
:100630008F9383D0CDBFDEBF19869ACF6D897E8917
:100640008F89988DA501940121D09F938F937F93DB
:100650006F935F934F933F932F938DE79DE89F9305
:100660008F93DFCFAA1BBB1B51E107C0AA1FBB1F83
:10067000A617B70710F0A61BB70B881F991F5A952E
:10068000A9F780959095BC01CD010895A1E21A2E9D
:10069000AA1BBB1BFD010DC0AA1FBB1FEE1FFF1F26
:1006A000A217B307E407F50720F0A21BB30BE40B76
:1006B000F50B661F771F881F991F1A9469F76095BD
:1006C0007095809590959B01AC01BD01CF01089577
:1006D000052E97FB16F400940FD057FD05D0D6DFFA
:1006E00007FC02D046F408C05095409530952195FE
:1006F0003F4F4F4F5F4F089590958095709561954E
:100700007F4F8F4F9F4F0895A29FB001B39FC001AD
:10071000A39F01D0B29F700D811D1124911D0895DA
:10072000F3DFB7FF0895821B930B0895FB01DC01F3
:1007300001900D920020E1F70895AEE0B0E0E2EA0A
:10074000F3E0CCC20D891E8986E08C8309831A836D
:100750008F89988D813020E8920710F080E090E832
:1007600001978D839E83AE01455E5F4F698D7A8DC3
:10077000CE01019611D04D815E8157FD0AC02F81B7
:100780003885421753070CF49A01020F131FF80122
:1007900010822E96E4E0BBC2AFE0B0E0E1EDF3E002
:1007A00092C26C017B018A01DC0116961D921C929B
:1007B000179713968C9181FFDCC12AE0522EF60127
:1007C0009381F70193FD859193FF81917F018823A8
:1007D00009F46FC0853239F493FD859193FF8191BF
:1007E0007F01853221F4B60190E0DCD1E8CF912C75
:1007F000612C712CFFE1F71508F443C08B32B1F185
:10080000E8F48032A9F18332C9F1833609F486C055
:10081000833709F48FC0833509F0AFC0F801A19088
:10082000B1908F01692D70E076FC02C06FEF7FEF11
:10083000C501A2D14C01689477F85DC08D32D9F022
:10084000803349F020ED280F2A3040F18E32C1F577
:10085000689476F802C0689470F8F70193FD85916A
:1008600093FF81917F018111C5CF32C0689471F8E7
:10087000689472F8F2CF689473F8EFCF689474F8C4
:10088000ECCF77FC25C020ED280F2A3070F476FEDF
:1008900005C0959C200D1124922EDFCF659C200D64
:1008A0001124622E689475F8D8CF8E3249F476FE02
:1008B000CFCFD60116968D919C912F96EFE01CC25A
:1008C0008C3619F4689477F8C8CF883609F4C5CF08
:1008D000982F9F7D9554933008F097CF0C5F1F4F52
:1008E0008FE3898388248394912CAE014F5F5F4FFF
:1008F0005A01E89477F873FC05C0862D90E08816BD
:10090000990630F18114910449F5662009F457CF16
:10091000B60180E290E046D16A94F7CFD8018C917D
:1009200089830E5F1F4F88248394912CFE0131969A
:100930005F01DFCFD801AD90BD908D01692D70E0D2
:1009400076FC02C06FEF7FEFC50121D14C01D1CF02
:10095000B60180E290E026D16A94CFCFF50177FC12
:10096000859177FE81915F01B60190E01BD1611006
:100970006A94F1E08F1A9108C5CF843619F0893650
:1009800009F07DC0F80177FE73C06191719181918A
:1009900091918F01272D2F76822E97FF09C0909578
:1009A0008095709561957F4F8F4F9F4F689487F822
:1009B0002AE030E0AE014F5F5F4F5A0123D18A1920
:1009C000A82EBA2C782C86FE0CC0E89470F8A914D6
:1009D00040F484FE05C082FC03C0782D7E7E772E15
:1009E000B92C74FEA1C0FE01EA0DF11D8081803397
:1009F00009F093C0872D897E782E73FC0EC070FE9F
:100A0000A1C09A2CB61418F4960C9B18B62C862DFF
:100A10008B196B1408F480E0B80EB61408F094C07B
:100A20006B1874FE93C0B60180E390E0BBD072FEF9
:100A300008C088E590E071FC02C088E790E0B6014C
:100A4000B1D0A91408F48FC0AA94B12C9FEFA91AB1
:100A5000B90ADE0111964D01AA0EBB1EF501829165
:100A60005F01B60190E09ED08A149B04B9F74DCF88
:100A700061917191072E000C880B990B8ACF872CFE
:100A8000E89484F82AE030E0853769F0572D597FE3
:100A9000852E803769F110F5883569F18F3609F0B8
:100AA00008CF28E030E0F80187FE2DC081919191B8
:100AB000A191B1918C879D87AE87BF878F01BE01C1
:100AC0006F5F7F4F5B01AB016C857D858E859F8558
:100AD00099D08A19A82EE89487F873CF883709F03F
:100AE000E8CE84FE02C0689482F820E130E0DBCFDB
:100AF000689484F8F6CF74FE03C0652F6660862E76
:100B000020E132E0D0CF81919191AC0160E070E0C2
:100B10004C875D876E877F87D1CF72FC02C0B3940C
:100B20006CCFB394B39469CF872D8678882309F46A
:100B300064CFF5CFB60180E290E034D08394861480
:100B4000C8F365CF8B2CFBCF612C6BCF872D8678BC
:100B5000882309F476CF8BE271FE80E277FC8DE288
:100B6000B60190E06DCFB60180E390E01BD09A947F
:100B700068CF8FEF9FEFA1CEFC01059061507040D0
:100B80000110D8F7809590958E0F9F1F0895FC0156
:100B90006150704001900110D8F7809590958E0FAC
:100BA0009F1F08950F931F93CF93DF93182F092F43
:100BB000EB018B8181FD09C01FEF0FEF812F902F7B
:100BC000DF91CF911F910F91089582FF14C02E8164
:100BD0003F818C819D81281739073CF4E881F98198
:100BE000CF0101968883998310838E819F8101961E
:100BF0008E839F83E3CFE885F985812F0995892B23
:100C0000A1F3DACFFA01AA27283051F1203181F17E
:100C1000E8946F936E7F6E5F7F4F8F4F9F4FAF4F04
:100C2000B1E03ED0B4E03CD0670F781F891F9A1F17
:100C3000A11D680F791F8A1F911DA11D6A0F711DCB
:100C4000811D911DA11D20D009F468943F912AE0D7
:100C5000269F11243019305D3193DEF6CF010895BF
:100C6000462F4770405D4193B3E00FD0C9F7F6CFF0
:100C7000462F4F70405D4A3318F0495D31FD4052B8
:100C8000419302D0A9F7EACFB4E0A695979587954E
:100C900077956795BA95C9F700976105710508952D
:100CA0009B01AC010A2E06945795479537952795D9
:100CB000BA95C9F7620F731F841F951FA01D089571
:100CC0002F923F924F925F926F927F928F929F925C
:100CD000AF92BF92CF92DF92EF92FF920F931F934A
:100CE000CF93DF93CDB7DEB7CA1BDB0BCDBFDEBF23
:100CF00009942A88398848885F846E847D848C842E
:100D00009B84AA84B984C884DF80EE80FD800C8136
:100D10001B81AA81B981CE0FD11DCDBFDEBFED01F0
:060D20000895F894FFCFD6
:100D2600504C442D55534243004D65746572000D79
:100D36000A504C442D55434D342D543431340D0A4C
:100D46000025303278253032782530327825303219
:100D5600780A0025326C752E2530336C75562000C6
:100D66002D20202020202020003E25316C752E25A8
:100D760030336C75413E003C25316C752E25303381
:050D86006C75413C000A
:00000001FF
